:020000040800F2
:1000000010120020290200087B210008A71E00080A
:100010007921000839070008C72700080000000000
:10002000000000000000000000000000172300088E
:10003000ED07000800000000152300080524000853
:10004000430200084302000843020008430200087C
:10005000430200084302000843020008430200086C
:10006000430200084302000843020008430200085C
:10007000430200084302000843020008430200084C
:10008000430200084302000843020008430200083C
:10009000430200084302000843020008430200082C
:1000A000AD240008D1240008C5240008B9240008A4
:1000B000DD240008E9240008430200084302000888
:1000C00043020008430200084302000843020008FC
:1000D00043020008430200084302000843020008EC
:1000E00043020008430200084302000843020008DC
:1000F00043020008430200084302000843020008CC
:1001000043020008430200084302000843020008BB
:1001100043020008430200084302000843020008AB
:100120003D0700084302000843020008430200089C
:10013000430200084302000843020008430200088B
:10014000430200084302000843020008430200087B
:10015000430200084302000843020008430200086B
:10016000430200084302000843020008430200085B
:100170004302000843020008430200080000000098
:10018000430200084302000800F002F800F03CF8C7
:100190000AA090E8000C82448344AAF10107DA45E2
:1001A00001D100F031F8AFF2090EBAE80F0013F0F8
:1001B000010F18BFFB1A43F001031847042E00007B
:1001C000242E0000103A24BF78C878C1FAD852070C
:1001D00024BF30C830C144BF04680C6070470000C1
:1001E0000023002400250026103A28BF78C1FBD840
:1001F000520728BF30C148BF0B6070471FB502F0DF
:10020000B8FE1FBD10B510BD00F0E2F81146FFF7B3
:10021000F5FF02F0BFFC00F000F903B4FFF7F2FFB6
:1002200003BC00F003F90000094880470948004773
:10023000FEE7FEE7FEE7FEE7FEE7FEE7FEE7FEE796
:10024000FEE7FEE704480549054A064B70470000F3
:100250009D24000889010008100C002010120020C5
:10026000100E0020100E002053EA020C00F06980EE
:100270002DE9F04B4FF00006002B1FBFB3FA83F5BA
:1002800003FA05F424FA05F65E4012BF1643B2FAEB
:1002900082F502FA05F4C5F120051EBF22FA05FC1D
:1002A00044EA0C04203556EA044C4FEA144418BFC3
:1002B000641C4FF000084FF00009904271EB030CF2
:1002C00039D3002919BFB1FA81F701FA07F6B0FA5C
:1002D00080F700FA07F6C7F120071EBF20FA07FCD7
:1002E00046EA0C062037B6FBF4FCA7EB0507103FE7
:1002F00007F01F0BCBF120060CFA0BFB2CFA06F6CD
:1003000044BFB3460026202FA4BF5E464FF0000B2B
:100310005BEA060C08BF4FF0010B19EB0B09ABFBB6
:10032000027C48EB0608C01B06FB02CC0BFB03CC8F
:1003300071EB0C01C1E70B46024641464846BDE859
:10034000F08B13B54FF000004FF00001AFF30080C9
:10035000BDE81C4070474FF0000200B513469446BC
:100360009646203922BFA0E80C50A0E80C50B1F10D
:100370002001BFF4F7AF090728BFA0E80C5048BF21
:100380000CC05DF804EB890028BF40F8042B08BFBF
:10039000704748BF20F8022B11F0804F18BF00F8BB
:1003A000012B704770477047704710B500F008F890
:1003B000006810BD10B5044600F002F8046010BDDE
:1003C00000487047AC0B002000487047AC0B002081
:1003D0007546FFF7F9FFAE4605006946534620F023
:1003E0000700854618B020B5FFF72CFFBDE8204078
:1003F0004FF000064FF000074FF000084FF0000BE1
:1004000021F00701AC46ACE8C009ACE8C009ACE893
:10041000C009ACE8C0098D46704710B50446AFF37B
:1004200000802046BDE81040FFF7F7BE01491820C4
:10043000ABBEFEE726000200704710B50146806B98
:10044000026C12F0500F05D0026CD20626D500F0D7
:1004500079FA10BD016C41F40071016401688A6889
:1004600012F0405F17D1027EAAB9CA6A12F4700F67
:1004700002D08A6852050ED44A6822F020024A60EF
:10048000016C21F480710164016CC90403D4016C16
:1004900041F00101016400F053FA10BD806BC26CA1
:1004A000BDE810400846104710B5806B402101643C
:1004B000416C41F00401416400F044FA10BD10B5F4
:1004C000806B00F03EFA10BD464910B54A6822F430
:1004D00040324A604A6843681A434A6001684A6881
:1004E00022F480724A6001684A68036942EA032282
:1004F0004A6001684A6822F040724A6001684A68AE
:1005000083681A434A6001688A6822F400628A603C
:1005100001688A68C3681A438A60816A6FF07062F2
:10052000D14201688A6822F070628A6001688A6834
:100530000CD0836A1A438A6001688A6822F04052AC
:100540008A6001688A68C36A1A4301E022F0405257
:100550008A6001688A6822F002028A6001688A68FB
:10056000037E42EA43028A6090F820100029016865
:100570004A680FD042F400624A6001684A6822F477
:1005800060424A6001684A68174C436A04EB43338F
:100590001A4301E022F400624A600168CA6A22F448
:1005A0007002CA620168CA6A838B104C04EB035361
:1005B0001A43CA6201688A6822F400728A6001687C
:1005C0008A6890F8303042EA43228A6001688A687B
:1005D00022F480628A6001688A68406942EA802069
:1005E000886010BD0023014000E0FFFF0000F0FF25
:1005F00030B52549254C0B468A6A5B6A012A04EB13
:10060000830501D01AB106E085ED000A03E085ED0F
:10061000000A5B1C4B624B6A834201D0012A2FD136
:1006200000231A464B620BE004EB8205D1ED040A6D
:1006300095ED000A521C30EE200A81ED040A4A6250
:100640008242F1DB00EE100AD1ED040A1A46B8EE40
:10065000C00A80EE801A81ED061A4B6208E000BFE6
:1006600004EB8203521C93ED010A83ED000A4A62F7
:100670008242F5DB01209FED060A81ED040A8862C3
:1006800091ED060A30BD000018000020CC000020CB
:100690000000000030B52549254C0B468A6A5B6A8C
:1006A000012A04EB830501D01AB106E085ED000AAA
:1006B00003E085ED000A5B1C4B624B6A834201D06C
:1006C000012A2FD100231A464B620BE004EB82056E
:1006D000D1ED030A95ED000A521C30EE200A81ED9F
:1006E000030A4A628242F1DB00EE100AD1ED030AEE
:1006F0001A46B8EEC00A80EE801A81ED051A4B62E8
:1007000008E000BF04EB8203521C93ED010A83ED65
:10071000000A4A628242F5DB01209FED060A81ED64
:10072000030A886291ED050A30BD00001800002020
:10073000EC03002000000000FEE70000014800F08C
:1007400025BA0000740A002001681823CAB2103AC2
:10075000B2FBF3F2054B6FF30901032A9B5CC365FF
:1007600000D9091D8165084670470000862F0008E2
:1007700010B5014600208B698A6A4FF0C07453B1EE
:10078000B3F5005F15D072B1012A0CD0022A0AD04D
:10079000032A09D104E01AB1012A06D0022A03D1A2
:1007A000C96AC90100D5012010BDC96AA142FAD0A9
:1007B00010BD002AF7D0012AF2D0022AF3D0032A72
:1007C000F3D010BD30B50468256825F48025256078
:1007D000046863608368402B036803D099600068F5
:1007E000C26030BD9A600068C16030BD704772B6AB
:1007F000FEE7000078B50024009490F83C20012A20
:1008000019D0012280F83C200A6807230568092ACC
:1008100013D9EE680A3A02EB420293409E43EE601F
:100820000B788A680A3B03EB43039A400368DD6850
:100830002A43DA6010E0022078BD2E6902EB420202
:1008400093409E432E610B788A6803EB43039A40E2
:1008500003681D692A431A614A681F23072A13D2B5
:1008600005686E6B521E02EB820293409E436E63DC
:100870000B790A885B1E92B203EB83039A400368EC
:100880005D6B2A435A6327E005680D2A12D22E6B4E
:10089000D21F02EB820293409E432E630B790A889B
:1008A000DB1F92B203EB83039A4003681D6B2A435C
:1008B0001A6311E0EE6A0D3A02EB820293409E4306
:1008C000EE620B790A880D3B92B203EB83039A40E8
:1008D0000368DD6A2A43DA62164B0568144A9D42B2
:1008E00006D10D68122D03D1556845F48005556079
:1008F00005689D4218D10B68102B01D0112B13D124
:10090000536843F400035360096810290CD10A4965
:100910000A4A0968B1FBF2F101EB8101490000E0EC
:10092000491E00910029FBD180F83C40002078BD91
:100930000023014000200140C800002040420F0079
:1009400070477047704770B504004FF0000503D042
:10095000206C002610B107E0012070BD204600F099
:100960001DF8666484F83C60206CC00610D4206CCE
:1009700020F4885040F0020020642046FFF7A4FDD8
:100980006664206C20F0020040F00100206400E06A
:10099000012584F83C60284670BD000070B586B023
:1009A000064614216846FFF7D6FC1E493068884287
:1009B00035D11D480025016841F48071016000684F
:1009C00000F48070059018481438016841F0010166
:1009D00001600068694600F0010005900F2000905A
:1009E0000320CDE90105114800F042FA114C1048EE
:1009F000C4E900050015A560C4E90350400060612A
:100A00008000A0614011E0614002C4E90805204671
:100A100000F08CF908B1FFF7EAFEB463A66306B0F4
:100A200070BD000000200140443802400000024038
:100A300010640240740A0020F8B5044600200E46F7
:100A4000009094F83C10012907D0012184F83C1053
:100A500021688B68DB0702D011E00220F8BD8B68AB
:100A600043F001038B604049404B0968B1FBF3F14F
:100A700001EB410100E0491E00910029FBD12168F2
:100A80008B68DB0503D58B6823F480738B6021684A
:100A90008B68DB075DD0236C40F20165AB4343F408
:100AA000807323644968490505D5216C21F4005100
:100AB00041F480512164216CC90404D5616C21F09A
:100AC0000601616400E0606484F83C00A16B294881
:100AD000274DC863A16B28480864A16B2748C864E8
:100AE00021686FF0220008602068416841F0806151
:100AF00041602068816841F48071816021681346FB
:100B000032464C31A06B00F07BF968681C49C00686
:100B1000206806D0884224D1816811F0405F13D04C
:100B20001FE08842F8D0174A904203D1D1F804233D
:100B3000D206F1D0144A904213D1D1F8041301F037
:100B40001F011029E8D30CE0816841F080418160E9
:100B500007E0206C40F010002064606C40F0010061
:100B600060640020F8BD0000C800002040420F0073
:100B7000002301403B040008BF040008A90400084A
:100B80000020014000210140002201402DE9F843EE
:100B900004464FF00009CDF8009063484FF4165119
:100BA000A56D0068B0FBF1F72E6894F85C10082082
:100BB00000FA01F131420FD021680A6852070BD5C3
:100BC0000A6822F004020A6094F85C108840A86069
:100BD000606D40F00100606594F85C104FF0010812
:100BE00008FA01F0304208D021684969090604D5A5
:100BF000A860606D40F00200606594F85C1004200D
:100C00008840304208D021680968890704D5A86067
:100C1000606D40F00400606594F85C10102088401E
:100C2000304218D021680968090714D5A8602068E7
:100C30000168490304D50068000308D5A16C07E0EA
:100C40000168C90503D4016821F008010160216C25
:100C500009B12046884794F85C1020208840304233
:100C600031D021680968C9062DD5A86094F83500EF
:100C700005282068016806D0490347D500680003AD
:100C80001DD4616C1CE021F01601016020684169EF
:100C900021F080014161206C08B9A06C20B120686E
:100CA000016821F00801016094F85C103F20884041
:100CB000A86084F8358084F83490216D1FE0E16BE2
:100CC00009B120468847606D00282BD0606DC007B1
:100CD00014D0052084F835002068016821F0010156
:100CE00001600098401C0090B84203D8206800685A
:100CF000C007F6D184F8358084F83490E16C00297F
:100D000010D001B02046BDE8F04308470168C9058E
:100D1000D5D4016821F01001016084F8358084F891
:100D20003490CCE7BDE8F883C80000202DE9F041FD
:100D3000044600F095F906465CB1022084F83500BF
:100D4000002584F834502068016821F00101016019
:100D50000DE00120BDE8F08100F082F9801B05283C
:100D600005D920206065032084F83500F2E720686B
:100D70000068C007F0D12268116820480140D4E91A
:100D800001031843D4E90336334318436369184316
:100D9000A3691843E3691843236A18430843616A47
:100DA000042903D1D4E90B131943084310602068C8
:100DB0004069666A20F0070130460E430127042887
:100DC0000CD1A06A0643E06A40B12046FFF7D0FC90
:100DD00020B14020606584F83570BAE7206846612C
:100DE0002046FFF7B1FC94F85C203F2191408160E0
:100DF000656584F835700020ACE700003F8010F096
:100E00002DE9F0410446866D90F834000025012854
:100E10000DD0012084F8340094F835700020012FA3
:100E200007D084F8340002252846BDE8F08102206E
:100E3000FBE7022784F8357060652046FFF7C2FCA7
:100E400094F85C103F208840B0602068016841F051
:100E500016010160206C20B12068016841F0080192
:100E600001602068016841F001010160DCE70000D9
:100E70002DE9F84FDFF8BCA10022012503264FF031
:100E80000F090AF1040BAAF1040E00BF0B6805FA62
:100E900002F42340A34270D10F7907F00307012F1A
:100EA00001D0022F16D187684FEA420806FA08FCE3
:100EB00027EA0C07D1F80CC00CFA08FC4CEA070C26
:100EC000C0F808C04768A7430C79C4F300149440E5
:100ED0003C4344600C79E443A4070AD0C4684FEA59
:100EE000420C06FA0CF7BC438F6807FA0CF727434D
:100EF000C7600C7904F00304022C12D1D40800EB73
:100F0000840CDCF820405707FF0E09FA07F824EAA2
:100F10000804D1F8108008FA07F848EA0408CCF869
:100F2000208004684FEA420C06FA0CF7BC430F79A4
:100F300007F0030707FA0CF7274307604C6814F41F
:100F4000403F70D03C4C276847F4804727602468B6
:100F500022F0030704F480440094384C07EB040C9F
:100F6000DCF8084897074FEA177809FA08F7BC43F6
:100F7000334FB84202D1002724E054E0314FB84249
:100F800001D101271EE0304FB84201D1022719E0FC
:100F90002E4FB84201D1032714E02D4FB84201D1A2
:100FA00004270FE02B4FB84201D105270AE02A4F52
:100FB000B84201D1062705E0284FB84201D10727E2
:100FC00000E0082707FA08F72743CCF80878DAF892
:100FD00000405746D1F804C09C435FEACC2C00D5B2
:100FE0001C433C60DBF800405F46D1F804C09C43E2
:100FF0005FEA8C2C00D51C433C60DEF8004077464D
:10100000D1F804C09C435FEA8C3C00D51C433C6093
:10101000084F083F3C68D1F804C09C435FEACC3CD1
:1010200000D51C433C60521C102AFFF42FAFBDE8D2
:10103000F88F0000083C0140443802400030014075
:10104000000002400004024000080240000C024080
:10105000001002400014024000180240001C024030
:101060000148806870470000BC0000200248816889
:101070000278114481607047BC0000200B4810B515
:10108000016841F400710160016841F48061016010
:10109000016841F480710160032000F06FF80F20B7
:1010A00000F006F800F024F8002010BD003C0240DB
:1010B00070B50D4D04464FF47A712878B1FBF0F00D
:1010C0000A490968B1FBF0F000F0EAFA48B9102CBF
:1010D00007D200222146501E00F030F800206C603C
:1010E00070BD012070BD0000BC000020C8000020C1
:1010F0000A4808B5016841F480410160006800F4C5
:10110000804000900548001F016841F08051016057
:10111000006800F08050009008BD00004438024094
:10112000002809DB00F01F020121914040098000E6
:1011300000F1E020C0F8001170470000F0B40E4B41
:101140001B680C46C3F30223C3F10705042D00D925
:101150000425191D072901D2002300E0DB1E01260A
:1011600006FA05F1491E214099409E40761E164020
:101170003143F0BC01F03BBB0CED00E0064900F050
:10118000070208684FF6FF03184040EA0220034AAE
:1011900010430860704700000CED00E00000FA0505
:1011A0002DE9F0470E46050065D0DFF81481D8F828
:1011B0000000F7B200F00700B04207D288F80070D4
:1011C000D8F8000000F00700B04254D128683D4C28
:1011D000810712D5400703D5206840F4E050206015
:1011E0002878000703D5206840F46040206020681C
:1011F000A96820F0F000084320602878C0072DD0AF
:10120000304968680839012812D0022813D0032811
:1012100011D00968890700292DDA216821F003011E
:1012200001432160FFF71CFF814641F2883A0EE03E
:1012300009688903EFE709688901ECE7FFF710FF08
:10124000A0EB0901514502D90320BDE8F0872068D1
:10125000696800F00C00B0EB810FEFD1D8F80010F6
:10126000404601F00701B14207D90770006800F05D
:101270000700B04201D00120E7E72878400705D5F4
:101280002068E96820F4E0500843206028780007CF
:1012900006D52068296920F4604040EAC10020603A
:1012A00000F018F82168084AC1F30311515CC840E6
:1012B0000649086006480068FFF7FAFE0020C4E708
:1012C000003C0240083802408E2F0008C800002071
:1012D000C0000020154810B5006810F00C0214483A
:1012E00013D04110042A0FD0082A0ED10F4C241F0E
:1012F0002268236802F03F025B0207D52068C0F332
:101300008810A0FB010106E0084610BD2168C1F36A
:101310008811A1FB00010023FEF7A6FF2168C1F39D
:101320000141491C4900B0FBF1F010BD08380240F2
:101330000024F4002DE9F84F04006ED02078DFF887
:101340004C93C007A9F104054AD009F104000168D3
:10135000C1F38101012908D00068C0F3810002288F
:101360000AD1D9F80000400206D52868800337D595
:1013700060680028E1D033E06068B0F5803F10D0AD
:10138000B0F5A02F286810D020F48030286028689D
:1013900020F4802028606068A8B1FFF761FE06464F
:1013A0000DE0286840F48030F4E740F480202860A5
:1013B000F7E700BFFFF754FE801B642873D8286846
:1013C0008003F7D50CE0FFF74BFE064605E000BFB3
:1013D000FFF746FE801B6428F0D828688003F7D406
:1013E0002078DFF8AC8280074FF0000A3ED5A7488E
:1013F000001D016811F00C0F08D00068C0F38100D7
:1014000002280BD1D9F80000400207D428688007D1
:1014100016D5E068012800D112E033E1E068B8B1E8
:101420000120C8F80000FFF71BFE064605E000BFDC
:10143000FFF716FE801B0228C0D828688007F7D562
:101440002868216920F0F80040EAC10028600DE01A
:10145000C8F800A0FFF704FE064604E0FFF700FE10
:10146000801B02281FD828688007F7D4207800073F
:1014700022D5864F87486169703771B101210160BB
:10148000FFF7EEFD064604E0FFF7EAFD801B0228A9
:1014900009D838688007F7D50EE0C0F800A0FFF73C
:1014A000DFFD064605E082E0FFF7DAFD801B02283B
:1014B0007DD838688007F7D42078400768D5DFF8F2
:1014C000CCB100270BF13C0BDBF80000C0000BD4C3
:1014D000DBF8001041F08051CBF80010DBF8000081
:1014E000012700F0805000906B4E3068C00510D48A
:1014F000306840F480703060FFF7B2FD009005E086
:10150000FFF7AEFD0099401A022850D83068C00598
:10151000F6D55E4EA0686C3601280FD005283068DD
:1015200010D020F001003060306820F004003060FE
:10153000A068B8B1FFF794FD00900FE0306840F06C
:101540000100F4E740F004003060F7E7FFF788FDA2
:101550000099411A41F28830814266D8306880078C
:10156000F4D50EE0FFF77CFD009007E0FFF778FD73
:101570000099411A41F28830814256D8306880077C
:10158000F4D42FB1DBF8001021F08051CBF800101B
:10159000A069C8B33D49091D0968C1F38101022949
:1015A0004AD00228504607D0C8F8600000E03CE06E
:1015B000FFF756FD04463BE04746C8F86000FFF7DA
:1015C0004FFD064605E000BFFFF74AFD801B0228DD
:1015D0002BD828688001F7D4D4E907010843A16A11
:1015E0002E4A490802EB0141626A41EA821108432E
:1015F00094F82C1040EA0161C9F800100120386607
:10160000FFF72EFD044606E03EE000BFFFF728FD91
:10161000001B022809D828688001F7D534E000BFF4
:10162000FFF71EFD001B022802D90320BDE8F88F3A
:1016300028688001F4D427E00128F7D0D9F8000009
:10164000E26900F4800191421CD1226A00F03F015E
:10165000914217D147F6C071626A0140B1EB821F17
:1016600010D1A26A4FF0FF3300F4403103EB520275
:10167000B1EB024F06D194F82C1000F07060B0EB83
:10168000016F01D00120D1E70020CFE704380240EC
:1016900000004742800E4742007000400000FFFFFC
:1016A00010B5401EB0F1807F01D3012010BD4FF076
:1016B000E02460610F21601701F099F80020A0611B
:1016C00007202061002010BD7047704710B590F8CA
:1016D0003C20012A22D0012280F83C20CA688C6874
:1016E00022F4407222434C6822F4806222430C6848
:1016F00022F4006222430C6922F4805222434C6996
:1017000022F400522243C969002322F480420A4392
:1017100001684A6480F83C30002010BD022010BDF2
:1017200070B590F83C20012A32D0012480F83C406A
:10173000022280F83D2003685A689D6822F07006F6
:101740000A6832435A60134B02689A4214D0B2F1CD
:10175000804F11D0104B9A420ED0104B9A420BD0B2
:101760000F4B9A4208D00F4B9A4205D00E4B9A422B
:1017700002D00E4B9A4204D1496825F080031943E8
:10178000916080F83D40002180F83C10084670BD13
:10179000022070BD0000014000040040000800402D
:1017A000000C0040000401400040014000180040CF
:1017B00010B5040003D094F83D0010B107E00120FB
:1017C00010BD002084F83C00204600F01FF80220E5
:1017D00084F83D00211D206800F08CFE012084F873
:1017E000460084F83E0084F83F0084F8400084F806
:1017F000410084F8420084F8430084F8440084F8EF
:10180000450084F83D00002010BD000008B50168C7
:101810002A48814227D12A48016841F0010101602C
:101820000068002200F00100009011461820FFF728
:1018300085FC1820FFF774FC002211461920FFF7E1
:101840007DFC1920FFF76CFC002211461A20FFF7DF
:1018500075FC1A20FFF764FC002211461B20FFF7DD
:101860006DFC1B2015E01648001FB1F1804F14D00D
:10187000144A914220D1016841F0020101600068E0
:10188000002200F00200009011461D20FFF756FCD8
:101890001D20BDE80840FFF743BC016841F001018D
:1018A00001600068002200F00100009011461C2039
:1018B000FFF744FC1C20ECE708BD000000000140DD
:1018C000443802400004004090F83D10012901D046
:1018D00001207047022180F83D100168CA6842F07B
:1018E0000102CA6000681149884214D0B0F1804FEB
:1018F00011D00F4988420ED00E4988420BD00E49B4
:10190000884208D00D49884205D00D49884202D04E
:101910000C49884204D1816801F00701062903D0EF
:10192000016841F0010101600020704700000140A2
:101930000004004000080040000C0040000401408A
:10194000004001400018004070B5044690F83C008B
:101950000025012817D0012684F83C60022084F875
:101960003D002068826822F0770222F47F42826084
:101970000868502838D00DDC20284FD005DC90B303
:10198000102811D14AE0022070BD302846D04028EE
:101990000AD13BE060282FD070280DD0B0F5805FD1
:1019A00003D0B0F5005F12D0012584F83D6000201F
:1019B00084F83C00284670BDCB68D1E9012120683D
:1019C00000F009FE2068816841F0770109E0CB68EA
:1019D000D1E90121206800F0FEFD2068816841F412
:1019E00080418160E1E719E0CA684968206800F039
:1019F000C7FE5021206806E0CA684968206800F0E8
:101A0000D0FE6021206800F0F0FDCEE7CA6849688A
:101A1000206800F0B5FE40212068F4E72268014606
:101A20001046F0E7704770B50446006801694FF052
:101A30000005C943890715D4C168C943890711D472
:101A4000E91E016101202077206880698007204617
:101A500002D0FFF7E7FF04E000F0C2F8204600F0F4
:101A600054F9257720680169C943490717D4C1682B
:101A7000C943490713D46FF00401016102202077A4
:101A80002068806910F4407F204602D0FFF7CAFF2B
:101A900004E000F0A5F8204600F037F9257720682B
:101AA0000169C943090716D4C168C943090712D49B
:101AB0006FF008010161042020772068C069800769
:101AC000204602D0FFF7AEFF04E000F089F8204680
:101AD00000F01BF9257720680169C943C90617D4AE
:101AE000C168C943C90613D46FF010010161082011
:101AF00020772068C06910F4407F204602D0FFF7AD
:101B000091FF04E000F06CF8204600F0FEF8257725
:101B100020680169C943C90708D1C168C943C90719
:101B200004D1891E0161204600F054F92068016942
:101B3000C943090609D4C168C943090605D46FF031
:101B4000800101612046FFF7BFFD20680169C9439C
:101B5000490609D4C168C943490605D46FF040015C
:101B60000161204600F09EF920680169C943890699
:101B70000BD4C168C943890607D46FF02001016105
:101B80002046BDE87040FFF7A0BD70BD10B586B01F
:101B9000044614216846FEF7DEFB0E4920688842A1
:101BA00016D10D480021026842F010020260006860
:101BB00000F0100005904FF4285000900220CDE96D
:101BC00001010120CDE9031069460448FFF750F9EF
:101BD00006B010BD00000140303802400010024045
:101BE000704770B5044690F83C0000260D46012869
:101BF0000FD0012084F83C006AB1042A1DD0082AC5
:101C00002FD00C2A3FD00126002084F83C0030461B
:101C100070BD022070BD206800F0F0FC2068816972
:101C200041F0080181612068816921F0040181612E
:101C3000206881692A69114311E0206800F00EFDD7
:101C40002068816941F4006181612068816921F423
:101C500080618161206881692A6941EA022181618C
:101C6000D2E7206800F030FD2068C16941F008012A
:101C7000C1612068C16921F00401C1612068C169A6
:101C80002A69114311E0206800F052FD2068C16903
:101C900041F40061C1612068C16921F48061C161C2
:101CA0002068C1692A6941EA0221C161ACE710B527
:101CB000040003D094F83D0010B107E0012010BDEE
:101CC000002084F83C00204600F01EF8022084F832
:101CD0003D00211D206800F00DFC012084F8460025
:101CE00084F83E0084F83F0084F8400084F8410006
:101CF00084F8420084F8430084F8440084F84500E6
:101D000084F83D00002010BD7047704710B50446B0
:101D1000022249B104290ED0082913D094F84100B9
:101D2000012816D0012010BD94F83E000128F9D1F9
:101D300084F83E200FE094F83F000128F2D184F8A7
:101D40003F2008E094F840000128EBD184F84020BF
:101D500001E084F841200122206800F02FFC1649A0
:101D60002068164A884201D0904203D1436C43F464
:101D7000004343642068884213D0B0F1804F10D0F4
:101D80000F4988420DD00F4988420AD00E49884237
:101D900007D0904205D00D49884202D00C498842B4
:101DA00004D1816801F00701062903D0016841F0E0
:101DB00001010160002010BD00000140000401404D
:101DC0000004004000080040000C004000400140BA
:101DD000001800402B4910B5884251D1F2EE080A94
:101DE000B1EE040A49F6404000F096FA0422264972
:101DF0002648FEF721FE2448DFED250A9FED251A2F
:101E00000188A0F1180400EE101AB8EE400A20EE86
:101E1000200A20EE010A84ED000A408801EE900AB3
:101E20001420F8EE611A61EEA00A60EE810AC4ED9A
:101E3000010AFEF72FFC84ED040A142094ED010A38
:101E4000FEF7D6FB84ED050A94ED041ADFED120AC5
:101E50009FED122A71EE601A30EE600ADFED100A73
:101E600081EE821AF7EE001A31EE211A84ED021A81
:101E700080EE201A84ED031ABDE8104000F07EB910
:101E800010BD0000D40A0020A80000202C0A002069
:101E9000000080393333534046B6D33F787AA53CAF
:101EA0009291D33E7047FEE77FB500252448009508
:101EB0000195029521490395016001244FF4803179
:101EC0000461C0E90115057680F820501D49C0E97C
:101ED0000A150426C661C56080F830404461FEF7EB
:101EE00032FD08B1FEF783FCCDE9005402256946B6
:101EF00013480295FEF77EFC08B1FEF778FC6946B0
:101F00000F48CDE90045FEF775FC08B1FEF76FFC00
:101F10000324CDE9005469460948FEF76BFC08B17B
:101F2000FEF765FCCDE9004669460548FEF762FC10
:101F3000002801D0FEF75BFC7FBD000000200140BF
:101F40002C0A00200100000F094808B5016841F47F
:101F5000800101600068002200F4800000901146BA
:101F60003820FFF7EBF8BDE808403820FFF7D8B875
:101F700030380240114808B5016841F004010160A1
:101F8000016801F004010091016841F080010160E5
:101F9000016801F080010091016841F001010160D8
:101FA000016801F001010091016841F01001016038
:101FB000006800F01000009008BD000030380240BA
:101FC00010B596B000240F941094119412941394A9
:101FD0001C2168461494FEF7BEF9202107A8FEF7DD
:101FE000BAF931482F4901600121C0E9011441F2D9
:101FF0006701C0E903148021C0E90541FFF7D8FB60
:1020000008B1FEF7F4FB4FF480500F900FA926485B
:10201000FFF79AFC08B1FEF7EAFB2348FFF747FEFB
:1020200008B1FEF7E4FB139413A91F481494FFF7BB
:1020300077FB08B1FEF7DBFB6020CDE900040294DA
:102040000394049405940022694617480694FFF708
:10205000C8FD08B1FEF7CBFB042269461248FFF722
:10206000C0FD08B1FEF7C3FB082269460E48FFF722
:10207000B8FD08B1FEF7BBFB0794089409944FF430
:1020800000500A94CDE90B4007A907480E94FFF7CA
:102090001DFB08B1FEF7ABFB0348FFF777FD16B059
:1020A00010BD000000000140D40A002010B586B029
:1020B00000241648009401940294039404944FF071
:1020C00080410594C0E9001440F63301C0E90241A3
:1020D000802104618161FFF76BFB08B1FEF787FB8C
:1020E0004FF48050009069460848FFF72DFC08B176
:1020F000FEF77DFB049404A904480594FFF710FB48
:10210000002801D0FEF773FB06B010BD1C0B0020A9
:1021100010B586B0002417480094019402940394EB
:10212000049413490594C0E9001440F21941C0E930
:102130000241802104618161FFF73AFB08B1FEF79B
:1021400056FB4FF48050009069460A48FFF7FCFBAD
:1021500008B1FEF74CFB049404A906480594FFF768
:10216000DFFA002801D0FEF742FB06B010BD0000E8
:1021700000040040640B0020FEE7FEE710B5544861
:102180002DED028B90ED001A9FED520A524C5348F0
:1021900021EE000A524984ED020AD0ED000A30EE29
:1021A000600A84ED030A84ED040AD4ED051A71EE89
:1021B000801A11EE900AC4ED051A884203DDDFEDA6
:1021C000491AC4ED051A11EE900A4749884203D90D
:1021D000DFED461AC4ED051AD4ED011A94ED052A77
:1021E000434921EE800AD4ED001A01EE820A84ED03
:1021F000060AD4ED071A31EE800A10EE100A84EDBB
:10220000070A884203DD9FED3B0A84ED070A10EEC2
:10221000100A3949884203DA9FED380A84ED070A2B
:1022200094ED080AF7EE001A354930EE210A84EDE4
:10223000080AD4ED091A10EE100A41EE011A88427C
:10224000C4ED091A94ED0A1A00EEA01A84ED0A1AD8
:1022500029D19FED2C8A81EE880A10EE100A00F039
:1022600017FE41EC100B00F09BFB51EC100B00F043
:10227000BDFCE062D4ED0A0A80EE880A10EE100A76
:1022800000F006FE41EC100B00F08AFB51EC100B45
:1022900000F0ACFC9FED1C0A206384ED090A84ED7C
:1022A0000A0A84ED080AE06AB0F1804F02DB94ED7F
:1022B000070A03E09FED150A84ED070ABCEEC00A89
:1022C000134910EE100A4863BDEC028B10BD0000EC
:1022D00098000020CDCCCC3D5C0000209C0000206C
:1022E00000007A4400007A4400007AC400007AC4F6
:1022F00000A0824500A082450000C8420000C842FC
:10230000000048440000484400000000000048422B
:1023100000000140704770479FED301A10B520EE65
:10232000010A2DED068B3221B0FBF1F080EE209AF0
:1023300000EE100ADFED2B8A294CB8EE400AF0EED1
:10234000009A9FED29AAC8EE800AC4ED020AD4EDD6
:10235000010A80EEA80A20EE290A20EE0A0A00F0FF
:1023600057FA20EE090A21489FED218A80ED000AE4
:10237000D4ED010A80EEA80A60EE290AB0EE480A00
:1023800000EE8A0A00F044FA20EE090A194880EDAE
:10239000000A94ED010AC0EE280A20EEA90A10EE08
:1023A0000A8AB0EE480A00F033FA20EE090A124811
:1023B000124980ED000A94ED010AD4ED020A30EED4
:1023C000200A10EE100A84ED010A884203DB9FED1B
:1023D0000C0A84ED010ABDEC068B10BDD7B3DD3FBE
:1023E000000000200000B443DA0F4940B000002094
:1023F000910A0640B4000020B80000200000B44359
:1024000000000000FEF732BE30B593B030216846C0
:10241000FDF7A1FF14210CA8FDF79DFF1D48002525
:10242000016841F080510160006800F08050119017
:102430001948016841F4804101600068022400F4F9
:102440008040119001200090000401908001CDE9AE
:10245000064008AA0420A82182E813000B906846D1
:10246000FEF768FF08B172B6FEE70CA90F2081E8FD
:1024700031004FF4A0500F904FF480501090052180
:102480000CA8FEF78DFE002801D072B6FEE713B04F
:1024900030BD000040380240007000400248016832
:1024A00041F470010160704788ED00E00148FFF7DA
:1024B000BABA0000D40A00200148FFF7B4BA0000FD
:1024C000D40A00200148FFF7AEBA0000D40A002069
:1024D0000148FFF7A8BA0000D40A00200148FFF71E
:1024E000A2BA00001C0B00200148FFF79CBA0000B4
:1024F000640B0020F0B50268254C264D264E274F70
:10250000274B4FF0804CA04209D0604507D0A8422D
:1025100005D0B04203D0B84201D0984204D122F095
:10252000700E4A6842EA0E02A0421BD0604519D0E4
:10253000A84217D0B04215D0B84213D0984211D05B
:10254000184DA8420ED0184DA8420BD0174DA842E6
:1025500008D0174DA84205D0164DA84202D0164DFE
:10256000A84203D122F44075CA682A434D6922F07B
:1025700080022A4302608A68C2620A688262A042BC
:1025800001D0984201D10969016301214161F0BD87
:10259000000001400004004000080040000C004022
:1025A0000004014000400140004401400048014057
:1025B00000180040001C00400020004010B501F051
:1025C0001F030121046A99408C430462016A9A4006
:1025D0001143016210BD10B5846842EA032224F45D
:1025E0007F440A432243826010BD826822F0700259
:1025F0000A4342F00701816070470000F0B5026AAB
:1026000022F001020262036A42688469124E24F0D9
:1026100073050C682C4323F002058B682B430D4D8A
:10262000A84201D0B04205D123F00807CB683B4354
:1026300023F00403A84201D0B04205D14D6922F431
:10264000407215438A692A43426084614968416344
:102650000362F0BD0000014000040140F0B5026AD1
:1026600022F010020262026A436884690D6824F451
:10267000E64444EA05248D6822F0200242EA05126D
:102680000F4D104EA84201D0B04206D1CF6822F0C3
:10269000800242EA071222F04002A84201D0B04272
:1026A00007D14D6923F4406343EA85038D6943EA0A
:1026B000850343608461496881630262F0BD000064
:1026C0000000014000040140F0B5026A22F480726B
:1026D0000262026A4368C46922F4007224F073053E
:1026E0000C68124E2C438D6842EA05220E4DA8421A
:1026F00001D0B04206D1CF6822F4006242EA07223C
:1027000022F48062A84201D0B04207D14D6923F47F
:10271000405343EA05138D6943EA05134360C461DE
:102720004968C1630262F0BD00000140000401403D
:1027300030B5026A22F480520262046A4268C369B8
:102740000D6823F4E64343EA05238D6824F400541E
:1027500044EA0534084DA84202D0084DA84204D1ED
:102760004D6922F4804242EA85124260C3614968A1
:102770000164046230BD000000000140000401401B
:1027800010B5036A046A24F001040462846924F029
:10279000F00444EA021423F00A020A43846102624C
:1027A00010BD10B5036A23F0100303628369046A45
:1027B00023F4704343EA023224F0A00343EA0111F8
:1027C0008261016210BDFEE74100080218BF0420CB
:1027D0000A0E18BF40F001004FF07F4232EA0101BB
:1027E00008BF40F00200012808BF05207047090714
:1027F000090E002804DB00F1E02080F80014704787
:1028000000F00F0000F1E02080F8141D7047000078
:1028100000B510EE101A2DED028B81B0524A6846B9
:10282000B2EB410F2ED94FF0E640B0EB410F94BF11
:1028300000204FF0FF3000900098B0EE408A002852
:102840006ADB10F0010F4BD068EE080A9FED471AC3
:102850009FED470A00EE810A9FED461A10F0020F25
:1028600000EE801AB7EE000A00EE810A02BF01B046
:10287000BDEC028B00BD00BF01B0B1EE400ABDEC63
:10288000028B00BD3C4B21F00042934241D911F034
:10289000004FDFED3A0A20EE201ADFED390A19BFAA
:1028A00031EE601A71EE200A31EE201A71EE600AE4
:1028B000BDEEE01A11EE100A9FED321A00F003008F
:1028C00000EEC10A9FED301A009000EEC10A9FEDA4
:1028D0002F1A00EEC10A9FED2E1A00EEC10AABE7D7
:1028E00028EE080A9FED2B1ADFED2B0A10F0020FDD
:1028F00040EE410A9FED291A00EE201A61EE000A0F
:10290000B0EE480A08EE200AB6D101B0BDEC028B49
:1029100000BD00F095F88FE718EE100A4000B0F106
:102920007F4F0DD218EE100AFFF74EFF042808BFA4
:1029300000F07EF8B0EE480A01B0BDEC028B00BD9D
:1029400009D10120FDF736FD01B0BDEC028B5DF829
:1029500004EB00F065B801B0B0EE480ABDEC028BA4
:102960005DF804EB00F059B8B61F927EB93AB2BADE
:10297000CA9F2A3DDDFFFFBE490E494683F9223F2B
:102980000000004B0000C93F00A0FD390020A23329
:102990001A61342C336D4C39DA82083CA0AA2ABE65
:1029A00000B52DED048BB0EE409AF0EE609A83B046
:1029B00051EC190B00F0A0F941EC180B18EE100ABD
:1029C00018EE901A8DED008B002818BF01200843E7
:1029D00020F00040C0F17F6000F1E040C00F14D053
:1029E00019EE101A19EE900A8DED009B002918BF00
:1029F0000121084320F00040C0F17F6000F1E04079
:102A0000C00F04BF0120FDF7D5FCB0EE480A03B0AB
:102A1000F0EE680ABDEC048B00BD30EE000A704792
:102A2000DFED020A80EEA00A7047000000000000FF
:102A30009FED020A20EE000A70470000000000101F
:102A40002DE9F0014FF07F42B2EB410F9FBF4FF0F5
:102A5000FF310160BDE8F00170474FF0004242EAEB
:102A60000123C1F3C752783A551112F01F0C434CA1
:102A7000CCF120067C44C1F3C752A2F178024FEAA0
:102A8000621204EB820254F8254008BFD2E90156D5
:102A900012D0556804FA0CF425FA06F73C439768FF
:102AA00005FA0CF527FA06F8D26807FA0CFCF24092
:102AB00045EA08054CEA0206A4FB034CA5FB0352B9
:102AC000A6FB03631D449D4234BF01260026131953
:102AD000334416B1934202D903E0934201D201225A
:102AE00000E00022624402F1200C9206DC0C42EA73
:102AF000443200EE102A5B03DFED210AF8EEC01A23
:102B000000EE103A4FEA9C1C11F0004FB8EE400A5C
:102B1000C0F800C020EE201A00EE105ADFED190AAE
:102B2000B8EE400A20EE200A71EE810A70EE800AAB
:102B300010EE902A02F500626FF30B0200EE902A6D
:102B400070EEE11A31EEC11ADFED101A30EE411AC3
:102B50009FED0D0A20EE800A01EE210A9FED0C1A6E
:102B600000EE810A04BFBDE8F0017047CCF180514E
:102B70000160BDE8F001B1EE400A70472805000091
:102B8000000000360000802C22AAFD29DB0FC92F8F
:102B90000000C92FFEF772FAFFF736FCFFF7EAF9DB
:102BA000FFF7D2F9FFF780F9FFF70AFAFFF77EFA8D
:102BB000FFF7AEFA0A48FEF787FE0A48FEF784FEE2
:102BC0000948FEF781FE00210748FFF79FF804211E
:102BD0000548FFF79BF808210348FFF797F8FEE741
:102BE0001C0B0020640B0020D40A002021F00042BE
:102BF000A2F16052B2F5801F01F0004328BFD2F16C
:102C00007F6C0BD95FEA001C43EAC20242EB5070B2
:102C100018BF704728BF20F001007047B2F5801F31
:102C2000BCBF184670474FEA410C1CF5001F02D28A
:102C3000084600F0A3B970B500F009F8000000895B
:102C4000FFF7F6BF4FF00040A0F5800070470EF18F
:102C5000020E2EF0030E5EF8046B364205D4012AF4
:102C600043EB030515F5001F12D8012841EB010CB9
:102C70001CF5001F0CD80ED14FEAD17C15F5001FB2
:102C80000CEB4C0C0CF1020C08BF4CEBD37C04E0B9
:102C90004FF0080C01E04FEAD37C0CEB4C0526FA10
:102CA00005F606F00706B6F1040C06D20EEB860C0C
:102CB000BDE870404CF0010C6047DFE80CF0090BF8
:102CC00002024FF000414FF00000A1F5002170BD5D
:102CD00019461046012851EB010418BFD4F5001421
:102CE00084BF002001F0004170BD0808A0F500116C
:102CF0004FEA3101704700002DE9F04101F5801CD9
:102D0000BCF5001FC0F2A9804FEA115C21EA0C510A
:102D10000CF1FD0C41F480115FEA5C0C0CF5C07CF9
:102D200001D34000494130A4890241EA9051870211
:102D30008E0E0A0CA45D04FB04F602FB06F6C6F137
:102D40004046A4FB0662F60D46EA422606FB06F460
:102D5000A4FB01235242C3F1404338BF5B1EA6FBD4
:102D600002420024E6FB0324D20B42EA4446A6FBBF
:102D70000623A1FB02E2A3FB07E4E3FB61426442FA
:102D8000C2F1404E38BFAEF1010EA6FB04234FF056
:102D90000002E6FB0E32A2FB03463400E2FB626453
:102DA000A1FB06E6A4FB07E8E4FB61687642C8F1F4
:102DB000405838BFA8F10108A2FB06E4A3FB08E5D0
:102DC000E2FB6854A1FB05E6A7FB04E8E1FB64868F
:102DD00018F1200556F10006A809A8F11B08B10951
:102DE00008F03F08B8F10A0F40EA86601CD901EBF1
:102DF0000C51BDE8F08100BFFCF5EEE8E2DDD8D370
:102E0000CFCBC7C3C0BDB9B6B4B1AEACA9A7A5A35B
:102E1000A19F9D9B9A9896959392908F8D8C8B896C
:102E20008887868584838281A0FB006800FB01F28D
:102E300008EB4208B8EB872807D5341858EB010493
:102E4000D5D5401C51F10001D1E7341A78EB0104CB
:102E5000CDD4401E71F10001C9E75FEA4C0C5FEA76
:102E60009C5C0DD105D34FF0000001F00041BDE89E
:102E7000F081BDE8F04170B5FFF7E9FE6DDBFFBE04
:102E8000BDE8F0414FF00000004970470000F87FB6
:102E900043004FEAD30C4FEA3C0C43401FBF4007AE
:102EA0000CF1605113F0FE4F70471CF0006F03D11E
:102EB00000200CF0004170470CF0004343EA5070D2
:102EC00010B540EACC0000F00EF800BF0000009200
:102ED0004FEA0001FFF709BF4FF000414FF000003B
:102EE000A1F5002170470EF1020E2EF0030E5EF8E0
:102EF000044B244204D44FEA4102B2F17F4F11D86F
:102F00004FEA4003B3F17F4F0CD80ED14FEAD07C8B
:102F1000B2F17F4F0CEB4C0C0CF1020C08BF4CEBE8
:102F2000D17C04E04FF0080C01E04FEAD17C0CEBBF
:102F30004C0324FA03F404F00704B4F1040C06D2A1
:102F40000EEB840CBDE810404CF0010C6047DFE84C
:102F50000CF0070802024FF00040A0F5800010BD01
:102F60000846420018BFD2F1807288BF00F00040CE
:102F700010BD4FF04070E1EE100A7047FF2141EAAA
:102F8000D050C0057047000610160006101600004D
:102F90000000000000000102030406070809000009
:102FA000000000006E83F9A22915444ED15727FC7A
:102FB000C0DD34F5999562DB4190433CAB6351FE33
:102FC000E02F000800000020CC000000C401000831
:102FD000AC300008CC00002044110000E0010008E3
:102FE00000000000000000000000000000000000E1
:102FF0000000000000000000F4FDB43F62149D4397
:1030000017B7D137000000000000000000000000EA
:1030100000000000000000000000000000000000B0
:1030200000000000000000000000000000000000A0
:103030000000000000000000000000000000000090
:103040000000A0410000000000000000000000009F
:103050000000000000000000000000000000000070
:103060000000000000000000000000000000000060
:103070000000000000000000000000000000000050
:103080000000000000000000000000000000000040
:10309000000000000000000000000000010000002F
:0C30A00010000000000000000024F400FC
:040000050800018965
:00000001FF
